:020000040000FA
:04000000FEEFFFF020
:10200000004D6F6469666963616E646F2E2E2E00E9
:1020100041637475616C697A61646F204F4B002075
:1020200020436F727269656E74653A0075412E00C7
:10203000256400001EC036F01FC037F020C038F005
:1020400021C039F022C03AF023C03BF024C03CF05C
:1020500025C03DF03DBE2FEF10F032EF10F0010E25
:1020600033EF10F0000E346E356A34503510D8B4AA
:102070003CEF10F03EEF10F04EEF10F03D1E3C1E16
:102080003B1E3A1E391E381E371E366C000E372294
:10209000382239223A223B223C223D22000165BFF0
:1020A00054EF10F056EF10F057EF10F0669365BF45
:1020B00064EF10F0655106E16405D8B062EF10F0EE
:1020C00064EF10F06AEF10F0000E316E010E306E0A
:1020D0006EEF10F064C030F065C031F062C032F0D5
:1020E00063C033F034503510D8A479EF10F07BEF93
:1020F00010F082EF10F066A580EF10F082EF10F084
:1021000085EF10F03206D8A03306000E3F6E1F0E8A
:102110003E6E000E896F09EF11F03E06D8A03F0613
:102120006A0E3E24D96E000E3F20DA6E36C001F0F2
:1021300037C002F038C003F039C004F03AC005F0EF
:102140003BC006F03CC007F03DC008F00A0E096E27
:10215000000E0A6E000E0B6E000E0C6E000E0D6E61
:10216000000E0E6E000E0F6E000E106E1CEC14F0C2
:1021700001C026F002C027F003C028F004C029F0F7
:1021800005C02AF006C02BF007C02CF008C02DF0C7
:1021900026C013F028C014F060EC18F01350300F74
:1021A000DF6E3006D8A031063206D8A0330636C01E
:1021B00001F037C002F038C003F039C004F03AC073
:1021C00005F03BC006F03CC007F03DC008F00A0E29
:1021D000096E000E0A6E000E0B6E000E0C6E000EE5
:1021E0000D6E000E0E6E000E0F6E000E106E58EC8F
:1021F00013F001C036F002C037F003C038F004C05D
:1022000039F005C03AF006C03BF007C03CF008C00A
:102210003DF03FBE14EF11F03F5008E13E04D8A05E
:1022200014EF11F016EF11F047EF11F036503710A0
:10223000381039103A103B103C103D10D8A423EF51
:1022400011F025EF11F08DEF10F031BE32EF11F0EB
:10225000315006E13004D8B030EF11F032EF11F018
:102260008DEF10F033BE3DEF11F0335008E1320432
:10227000D8A03DEF11F03FEF11F047EF11F0000152
:1022800066B345EF11F047EF11F08DEF10F03450C9
:102290003510D8A44EEF11F050EF11F058EF11F0B7
:1022A000000166A556EF11F058EF11F077EF11F02D
:1022B0003E06D8A03F0634503510D8A462EF11F086
:1022C00064EF11F06AEF11F0000E2F6E2B0E2E6EE0
:1022D0006EEF11F0000E2F6E2D0E2E6E6A0E3E2444
:1022E000D96E000E3F20DA6E6000BBF0DFFF1CC02D
:1022F00011F01DC012F06A0E3E24136E000E3F2036
:10230000146E32C015F033C016F02EEC16F011C06A
:102310001CF012C01DF0120060000BF1D9FF60002C
:102320000FF1DAFF6F007BFFF6FF6F0077FFF7FF1B
:102330000800F550250AD8A4A0EF11F0A2EF11F083
:102340006AEF12F060000BF1D9FF60000FF1DAFFC5
:10235000DE2A000EDD22000E0001636F000E626FA8
:1023600062C066F063C067F06469656960000BF184
:10237000D9FF60000FF1DAFF6F007BFFF6FF6F00FF
:1023800077FFF7FF0800F550640AD8B4CAEF11F0E0
:10239000CCEF11F0E2EF11F060000BF1D9FF60001B
:1023A0000FF1DAFF6F007BFFF6FF6F0077FFF7FF9B
:1023B0000800F550690AD8A4E0EF11F0E2EF11F03F
:1023C0002CEF12F060000BF1D9FF60000FF1DAFF83
:1023D000DE2A000EDD22600013F1D9FF600017F144
:1023E000DAFF6F007CFF46F0020EDE266F007CFFF6
:1023F00047F0000EDD2260001BF1D9FF60001FF1E5
:10240000DAFF6F0078FF48F06F0074FF49F0000EAC
:1024100049BEFF0E4A6E4B6E4C6E4D6E4E6E4F6E49
:1024200040C01CF041C01DF048C01EF049C01FF064
:102430004AC020F04BC021F04CC022F04DC023F028
:102440004EC024F04FC025F01AEC10F01CC040F034
:102450001DC041F08BEF12F060000BF1D9FF60005E
:102460000FF1DAFF6F007BFFF6FF6F0077FFF7FFDA
:102470000800F550250AD8A440EF12F042EF12F000
:102480005BEF12F060000BF1D9FF60000FF1DAFF93
:10249000DE2A000EDD22000E026E250E016E40C007
:1024A00003F041C004F0C2EC15F0000E416E010EC5
:1024B000406E8BEF12F060000BF1D9FF60000FF15E
:1024C000DAFFDE2A000EDD22000E416E000E406EA5
:1024D0008BEF12F060000BF1D9FF60000FF1DAFF13
:1024E0006F007BFFF6FF6F0077FFF7FF0800F550E6
:1024F000016E026A40C003F041C004F0C2EC15F066
:1025000060000BF1D9FF60000FF1DAFFDE2A000E48
:10251000DD2255EF12F012009DEC18F0E2EC16F0FF
:10252000030E00019F6F080E9E6F770EE82EFED7F8
:102530009E2FFCD79F2FFAD768C05EF069C05FF06E
:1025400054EC15F0CABAA7EF12F0A9EF12F0EBEFB6
:1025500012F0340E00019E6FF10EE82EFED79E2F72
:10256000FCD700D0CAAAB7EF12F0B9EF12F0CEEF45
:1025700012F056EF13F0F60E00016825686FFF0E9B
:102580006921696F030E00019F6F080E9E6F770E21
:10259000E82EFED79E2FFCD79F2FFAD7CAAAD3EFDB
:1025A00012F0D5EF12F0BBEF12F0F50E0001685DEE
:1025B000010E6959D8A0DFEF12F0E1EF12F0E5EF5C
:1025C00012F0010E696FF40E686F68C05EF069C0AA
:1025D0005FF0B5EC17F0CAB6F0EF12F0F2EF12F0C0
:1025E00034EF13F0340E00019E6FF10EE82EFED78B
:1025F0009E2FFCD700D0CAA600EF13F002EF13F015
:1026000017EF13F056EF13F00A0E00016825686FFC
:10261000000E6921696F030E00019F6F080E9E6F07
:10262000770EE82EFED79E2FFCD79F2FFAD7CAA68B
:102630001CEF13F01EEF13F004EF13F0F50E000182
:10264000685D010E6959D8A028EF13F02AEF13F046
:102650002EEF13F0000E696F000E686F68C05EF019
:1026600069C05FF0B5EC17F0CAB839EF13F03BEF73
:1026700013F0A2EF12F0340E00019E6FF10EE82E5F
:10268000FED79E2FFCD700D0CAA849EF13F04BEF1E
:1026900013F04DEF13F056EF13F0CAA852EF13F0FA
:1026A00054EF13F04DEF13F09CEF12F0FEEFFFF03C
:1026B000000E126E10BE61EF13F05FEF13F073EFB8
:1026C00013F0101E0F1E0E1E0D1E0C1E0B1E0A1EDA
:1026D000096C000E0A220B220C220D220E220F2260
:1026E0001022010E126E08BE7AEF13F078EF13F08D
:1026F0008CEF13F0081E071E061E051E041E031E87
:10270000021E016C000E0222032204220522062270
:1027100007220822010E121A20EE13F0070EDE6ABD
:10272000E806FDE209500A100B100C100D100E10F7
:102730000F101010D8B49FEF13F0A1EF13F0F3EFC8
:1027400013F0010E116EAFEF13F0D89009360A3670
:102750000B360C360D360E360F361036112A10AEEB
:10276000B4EF13F0B6EF13F0A5EF13F0D8901336D3
:102770001436153616361736183619361A360950E5
:10278000015C0A5002580B5003580C5004580D506D
:1027900005580E5006580F50075810500858D8A02A
:1027A000D4EF13F0D6EF13F0E7EF13F00950015E0A
:1027B0000A50025A0B50035A0C50045A0D50055A35
:1027C0000E50065A0F50075A1050085A1380D890CE
:1027D00010320F320E320D320C320B320A32093205
:1027E000112EB6EF13F01250D8B4F9EF13F0FBEF3F
:1027F00013F00BEF14F01A1E191E181E171E161ECA
:10280000151E141E136C000E1422152216221722F8
:10281000182219221A2213C001F014C002F015C0A8
:1028200003F016C004F017C005F018C006F019C078
:1028300007F01AC008F01200000E126E08BE25EF55
:1028400014F023EF14F037EF14F0081E071E061ED5
:10285000051E041E031E021E016C000E022203222E
:1028600004220522062207220822010E126E10BE43
:102870003EEF14F03CEF14F04EEF14F0101E0F1E5C
:102880000E1E0D1E0C1E0B1E0A1E096C000E0A22C7
:102890000B220C220D220E220F22102209500A10A8
:1028A0000B100C100D100E100F101010D8B45BEFA1
:1028B00014F05DEF14F0A5EF14F0010E116E6BEF44
:1028C00014F0D89009360A360B360C360D360E3613
:1028D0000F361036112A10AE70EF14F072EF14F0AC
:1028E00061EF14F00950015C0A5002580B50035874
:1028F0000C5004580D5005580E5006580F500758EC
:1029000010500858D8A087EF14F089EF14F099EF11
:1029100014F00950015E0A50025A0B50035A0C5031
:10292000045A0D50055A0E50065A0F50075A1050AF
:10293000085AD89010320F320E320D320C320B3250
:102940000A320932112E72EF14F01250D8B4ABEFE4
:1029500014F0ADEF14F0BDEF14F0081E071E061EB4
:10296000051E041E031E021E016C000E022203221D
:102970000422052206220722082201C001F002C01B
:1029800002F003C003F004C004F005C005F006C067
:1029900006F007C007F008C008F01200000E166E1F
:1029A00014BED7EF14F0D5EF14F0E1EF14F0141EBD
:1029B000131E121E116C000E122213221422010E7D
:1029C000166E10BEE8EF14F0E6EF14F0F2EF14F01C
:1029D000101E0F1E0E1E0D6C000E0E220F22102256
:1029E000010E161A000E176E000E186E000E196EEC
:1029F000000E1A6E1150121013101410D8B403EFF9
:102A000015F005EF15F03BEF15F0010E156E0FEF09
:102A100015F0D8901136123613361436152A14AE26
:102A200014EF15F016EF15F009EF15F0D8901736E2
:102A3000183619361A3611500D5C12500E581350B4
:102A40000F5814501058D8A028EF15F02AEF15F0A1
:102A500033EF15F011500D5E12500E5A13500F5AED
:102A60001450105A1780D890143213321232113287
:102A7000152E16EF15F01650D8B441EF15F043EFB0
:102A800015F04BEF15F01A1E191E181E176C000ECC
:102A9000182219221A2217C00DF018C00EF019C002
:102AA0000FF01AC010F012005EC001F05FC002F01B
:102AB000036A046A000E056E000E066E080E076EAD
:102AC000200E086E1AEC17F001C00DF002C00EF0D7
:102AD00003C00FF004C010F0400E116E4B0E126ECA
:102AE0004C0E136E000E146ECEEC14F0F9EC18F0D0
:102AF000020E046E010E82EC17F0100E056E200E11
:102B0000066E91EC16F00B0E0001956F260E946F79
:102B10005D0EE82EFED7942FFCD7952FFAD700D064
:102B2000F9EC18F0020E046E010E82EC17F01F0E85
:102B3000056E200E066E91EC16F0060E046E020E67
:102B400082EC17F09A0E586E000E596E300E5A6EC7
:102B5000200E5B6E5EC05CF05FC05DF015EC18F09F
:102B60009A0E056E000E066E91EC16F00A0E046EBB
:102B7000020E82EC17F02C0E056E200E066E91EC04
:102B800016F0120003500410D8B4C9EF15F0CBEFC3
:102B900015F0D4EF15F003500410D8A4D2EF15F0BF
:102BA000D4EF15F0D9EF15F0015000EC19F02DEF2E
:102BB00016F020EE04F00350D9260450DA22DE503D
:102BC000DE10D8B4E6EF15F0E8EF15F003EF16F0DD
:102BD00020EE04F00350D9260450DA2210EE02F061
:102BE0000350E1260450E222DE50E65CE650800A03
:102BF000096EDE50800A0958D8B001EF16F003EFD5
:102C000016F02DEF16F020EE02F00350D9260450F6
:102C1000DA226F0078FF05F06F0074FF06F06000A5
:102C20000FF0D9FF600013F0DAFF6F0078FF07F0B4
:102C30006F0074FF08F005500724D96E0650082075
:102C4000DA6E600007F0DFFF20EE02F00350D926B5
:102C50000450DA22DE2A000EDD221200000166A1F5
:102C600034EF16F036EF16F040EF16F013C00AF00E
:102C700014C00BF011C00CF012C00DF03EEC18F0B7
:102C800016BE45EF16F047EF16F04DEF16F015C0E3
:102C90001AF016C01BF051EF16F0000E1B6E000E5E
:102CA0001A6E000E196E000E186E63EF16F0000E0D
:102CB000026E200E016E11C003F012C004F0C2ECCF
:102CC00015F0184A192A1A50185C1950800A176E04
:102CD0001B50800A1758D8A070EF16F072EF16F04C
:102CE00057EF16F0000166B178EF16F07AEF16F0A4
:102CF00084EF16F013C00AF014C00BF011C00CF0F2
:102D000012C00DF03EEC18F013C001F014C002F038
:102D100080EC18F01A500124116E1B500220126E24
:102D20001200000E0A6E000E096EB6EF16F0095082
:102D30000524076E0A500620086E60001FF0F6FF9B
:102D4000600023F0F7FF000EF86E1F0EF76403D04B
:102D50000800F55007D06F00DBFFE1FF6F00DFFFD9
:102D6000E2FFE750BAEC18F0094A0A2A0950052494
:102D7000076E0A500620086E60001FF0F6FF600024
:102D800023F0F7FF000EF86E1F0EF76403D0080063
:102D9000F55007D06F00DBFFE1FF6F00DFFFE2FFC0
:102DA000E7500009D8A4D7EF16F0D9EF16F097EF47
:102DB00016F01A0E076EF80EE82EFED7072EFCD777
:102DC00000D01200000EE7EC17F0340E046EF20E85
:102DD000E82EFED7042EFCD7030ED6EC18F00D0E0D
:102DE000046EFC0EE82EFED7042EFCD7030ED6ECA4
:102DF00018F01D0E046E910EE82EFED7042EFCD79F
:102E000000F0030ED6EC18F0020ED6EC18F0020E0D
:102E1000D6EC18F0080ED6EC18F0000ED6EC18F030
:102E20000C0ED6EC18F0000ED6EC18F0060ED6EC10
:102E300018F01200000E096E000E0A6E000E0B6EE6
:102E4000000E0C6E01A027EF17F029EF17F031EFFD
:102E500017F00550092606500A2207500B22085089
:102E60000C22D8900536063607360836D89004323C
:102E70000332023201320150021003100410D8A4B0
:102E800044EF17F046EF17F022EF17F009C001F0FA
:102E90000AC002F00BC003F00CC004F0120052C0D4
:102EA00056F053C057F0000E0001616F000E606FC6
:102EB0006DEF17F050C040F051C041F0560E426E19
:102EC000000E436E54C044F055C045F08CEC11F038
:102ED0004050000160274150612360005BF1F6FF24
:102EE00060005FF1F7FF0800F5500009D8A47BEF00
:102EF00017F07DEF17F05AEF17F060C050F061C087
:102F000051F01200056E0504D8A489EF17F08BEF7D
:102F100017F09CEF17F004507F0F086E08380F0B66
:102F2000066E08500F0B076E0650D6EC18F00750CF
:102F3000D6EC18F0B4EF17F0020E0518D8A4A3EFE2
:102F400017F0A5EF17F0B4EF17F00450BF0F086E9D
:102F500008380F0B066E08500F0B076E0650D6ECA4
:102F600018F00750D6EC18F01200F9EC18F0020E29
:102F7000046E010E82EC17F0010E056E200E066E37
:102F800091EC16F0060E046E020E82EC17F0940E11
:102F9000586E000E596E300E5A6E200E5B6E5EC07B
:102FA0005CF05FC05DF015EC18F0940E056E000E3D
:102FB000066E91EC16F00A0E046E020E82EC17F00B
:102FC0002C0E056E200E066E91EC16F01200016EAE
:102FD00001A0EDEF17F0EFEF17F0F2EF17F0BB8461
:102FE000F3EF17F0BB9401A2F8EF17F0FAEF17F028
:102FF000FDEF17F0BB86FEEF17F0BB9601A403EFC1
:1030000018F005EF18F008EF18F0BB8809EF18F07A
:10301000BB9801A60EEF18F010EF18F013EF18F0A0
:10302000BB8A14EF18F0BB9A12005C0E00018C6F83
:10303000000E8D6F58C08EF059C08FF0000E916F4A
:10304000000E906F000E936F000E926F8E0E506EFA
:10305000000E516E5AC052F05BC053F08C0E546E8D
:10306000000E556E4FEC17F0000190515824D96EA8
:1030700091515920DA6E000EDF6E1200000E106EB4
:10308000000E0F6E4FEF18F00EC001F0026A0CC078
:1030900003F00DC004F0C2EC15F00F4A102A0F50D7
:1030A0000A24D96E10500B20DA6EDF500E6E0E50CF
:1030B000D8A45DEF18F05FEF18F044EF18F012009D
:1030C00014BE6DEF18F0145006E11304D8B06BEF86
:1030D00018F06DEF18F07BEF18F013C015F014C066
:1030E00016F0151E161E154A162A15C013F016C026
:1030F00014F07FEF18F013C013F014C014F0120096
:1031000001C003F002C004F088EF18F0014A022A5F
:10311000600007F0D9FF60000BF0DAFFDF50D8A4A1
:1031200094EF18F096EF18F086EF18F00350015C5A
:10313000016E04500258026E1200700E3901D96FF0
:10314000000ECA6E000EBA6E000E3A01406F3C0EC1
:10315000C26E000ECB6E000EBB6E000E506F000EE6
:10316000C36E000ECC6E000EBC6E000E606F000EC3
:10317000C46E1200046E04500F0B026E0450F00B6C
:10318000036EBB8003380F0BE7EC17F0BB821A0EFF
:10319000E82EFED700D0BB920250E7EC17F0BB82BE
:1031A0001A0EE82EFED700D0BB921200036EBB9021
:1031B0000350E7EC17F0BB820B0E026E620EE82E96
:1031C000FED7022EFCD700D0BB920B0E026E620E11
:1031D000E82EFED7022EFCD700D0120000EE60F0E1
:1031E0002A0EEE6AE806FDE1000EF86E00018CEF93
:1031F00012F0000ED6EC18F0010ED6EC18F012000A
:023200001200BA
:020000040001F9
:04FFFC00EEEF18F01C
:020000040020DA
:10000000FF0FFF0FFF0FFF0FFF0FFF0FFF0FFF0F80
:020000040030CA
:0A000000FAD53EFF9FFFFFDFFFFF70
:00000001FF
